{"abi":[{"inputs":[{"internalType":"address","name":"","type":"address"}],"name":"addressToNumber","outputs":[{"internalType":"uint256","name":"","type":"uint256"}],"stateMutability":"view","type":"function"},{"inputs":[{"internalType":"uint256","name":"","type":"uint256"}],"name":"addresses","outputs":[{"internalType":"address","name":"","type":"address"}],"stateMutability":"view","type":"function"},{"inputs":[{"internalType":"uint256","name":"number","type":"uint256"}],"name":"changeYourNumber","outputs":[],"stateMutability":"nonpayable","type":"function"},{"inputs":[],"name":"getaAdressesLen","outputs":[{"internalType":"uint256","name":"","type":"uint256"}],"stateMutability":"view","type":"function"}],"bytecode":"608060405234801561001057600080fd5b506101c1806100206000396000f3fe608060405234801561001057600080fd5b506004361061004c5760003560e01c80634d78b4dc14610051578063d0a718fa146100b6578063edf26d9b146100cd578063f051db38146100f8575b600080fd5b6100b461005f366004610142565b3360008181526001602081905260408220939093558054928301815580527f290decd9548b62a8d60345a988386fc84ba6bc95484008f6362f93160ef3e56390910180546001600160a01b0319169091179055565b005b6000545b6040519081526020015b60405180910390f35b6100e06100db366004610142565b610118565b6040516001600160a01b0390911681526020016100c4565b6100ba61010636600461015b565b60016020526000908152604090205481565b6000818154811061012857600080fd5b6000918252602090912001546001600160a01b0316905081565b60006020828403121561015457600080fd5b5035919050565b60006020828403121561016d57600080fd5b81356001600160a01b038116811461018457600080fd5b939250505056fea2646970667358221220770804108bd20496e5c2436dca2a412737a93376b03a5e194a57e2afe744959864736f6c634300080a0033","bytecodeSha1":"5fcda7588a69cadc0996a7026ed05c39e7c58848","compiler":{"evm_version":"istanbul","optimizer":{"enabled":true,"runs":200},"version":"0.8.10+commit.fc410830"},"contractName":"SimpleContract","language":"Solidity","natspec":{"kind":"dev","methods":{},"version":1},"opcodes":"PUSH1 0x80 PUSH1 0x40 MSTORE CALLVALUE DUP1 ISZERO PUSH2 0x10 JUMPI PUSH1 0x0 DUP1 REVERT JUMPDEST POP PUSH1 0x4 CALLDATASIZE LT PUSH2 0x4C JUMPI PUSH1 0x0 CALLDATALOAD PUSH1 0xE0 SHR DUP1 PUSH4 0x4D78B4DC EQ PUSH2 0x51 JUMPI DUP1 PUSH4 0xD0A718FA EQ PUSH2 0xB6 JUMPI DUP1 PUSH4 0xEDF26D9B EQ PUSH2 0xCD JUMPI DUP1 PUSH4 0xF051DB38 EQ PUSH2 0xF8 JUMPI JUMPDEST PUSH1 0x0 DUP1 REVERT JUMPDEST PUSH2 0xB4 PUSH2 0x5F CALLDATASIZE PUSH1 0x4 PUSH2 0x142 JUMP JUMPDEST CALLER PUSH1 0x0 DUP2 DUP2 MSTORE PUSH1 0x1 PUSH1 0x20 DUP2 SWAP1 MSTORE PUSH1 0x40 DUP3 KECCAK256 SWAP4 SWAP1 SWAP4 SSTORE DUP1 SLOAD SWAP3 DUP4 ADD DUP2 SSTORE DUP1 MSTORE PUSH32 0x290DECD9548B62A8D60345A988386FC84BA6BC95484008F6362F93160EF3E563 SWAP1 SWAP2 ADD DUP1 SLOAD PUSH1 0x1 PUSH1 0x1 PUSH1 0xA0 SHL SUB NOT AND SWAP1 SWAP2 OR SWAP1 SSTORE JUMP JUMPDEST STOP JUMPDEST PUSH1 0x0 SLOAD JUMPDEST PUSH1 0x40 MLOAD SWAP1 DUP2 MSTORE PUSH1 0x20 ADD JUMPDEST PUSH1 0x40 MLOAD DUP1 SWAP2 SUB SWAP1 RETURN JUMPDEST PUSH2 0xE0 PUSH2 0xDB CALLDATASIZE PUSH1 0x4 PUSH2 0x142 JUMP JUMPDEST PUSH2 0x118 JUMP JUMPDEST PUSH1 0x40 MLOAD PUSH1 0x1 PUSH1 0x1 PUSH1 0xA0 SHL SUB SWAP1 SWAP2 AND DUP2 MSTORE PUSH1 0x20 ADD PUSH2 0xC4 JUMP JUMPDEST PUSH2 0xBA PUSH2 0x106 CALLDATASIZE PUSH1 0x4 PUSH2 0x15B JUMP JUMPDEST PUSH1 0x1 PUSH1 0x20 MSTORE PUSH1 0x0 SWAP1 DUP2 MSTORE PUSH1 0x40 SWAP1 KECCAK256 SLOAD DUP2 JUMP JUMPDEST PUSH1 0x0 DUP2 DUP2 SLOAD DUP2 LT PUSH2 0x128 JUMPI PUSH1 0x0 DUP1 REVERT JUMPDEST PUSH1 0x0 SWAP2 DUP3 MSTORE PUSH1 0x20 SWAP1 SWAP2 KECCAK256 ADD SLOAD PUSH1 0x1 PUSH1 0x1 PUSH1 0xA0 SHL SUB AND SWAP1 POP DUP2 JUMP JUMPDEST PUSH1 0x0 PUSH1 0x20 DUP3 DUP5 SUB SLT ISZERO PUSH2 0x154 JUMPI PUSH1 0x0 DUP1 REVERT JUMPDEST POP CALLDATALOAD SWAP2 SWAP1 POP JUMP JUMPDEST PUSH1 0x0 PUSH1 0x20 DUP3 DUP5 SUB SLT ISZERO PUSH2 0x16D JUMPI PUSH1 0x0 DUP1 REVERT JUMPDEST DUP2 CALLDATALOAD PUSH1 0x1 PUSH1 0x1 PUSH1 0xA0 SHL SUB DUP2 AND DUP2 EQ PUSH2 0x184 JUMPI PUSH1 0x0 DUP1 REVERT JUMPDEST SWAP4 SWAP3 POP POP POP JUMP INVALID LOG2 PUSH5 0x6970667358 0x22 SLT KECCAK256 PUSH24 0x804108BD20496E5C2436DCA2A412737A93376B03A5E194A JUMPI 0xE2 0xAF 0xE7 DIFFICULTY SWAP6 SWAP9 PUSH5 0x736F6C6343 STOP ADDMOD EXP STOP CALLER ","sha1":"343ab25f553fe3e90bfd57194ecba43fed971771","source":"// SPDX-License-Identifier: MIT\npragma solidity ^0.8.7;\n\ncontract SimpleContract{\n\n    address[] public addresses;\n    mapping(address => uint256) public addressToNumber;\n\n    function getaAdressesLen() public view returns(uint256){\n        return addresses.length;\n    }\n\n    function changeYourNumber (uint256 number) public{\n        addressToNumber[msg.sender] = number;\n        addresses.push(msg.sender);\n    }\n    \n}","sourcePath":"contracts/SimpleContract.sol","type":"contract","deployment":{"address":"0xA9fdA236Cb4397C51F43760742822302221CB31f","chainid":"42","blockHeight":28818341}}